:020000040000FA
:1000000090020010690100007101000073010000FE
:100010007501000077010000790100000000000078
:100020000000000000000000000000007B01000054
:100030007D010000000000007F0100008101000040
:1000400083010000830100008301000083010000A0
:100050008301000083010000830100008301000090
:100060008301000083010000830100008301000080
:100070008301000083010000830100008301000070
:100080008301000083010000830100008301000060
:100090008301000083010000830100008301000050
:1000A0008301000083010000830100008301000040
:1000B0008301000083010000830100008301000030
:1000C00083010000830100008301000000F002F8BA
:1000D00000F03AF80AA090E8000C82448344AAF1A8
:1000E0000107DA4501D100F02FF8AFF2090EBAE8A6
:1000F0000F0013F0010F18BFFB1A43F0010318475C
:10010000A4070000C4070000103A24BF78C878C1D3
:10011000FAD8520724BF30C830C144BF04680C600D
:10012000704700000023002400250026103A28BF55
:1001300078C1FBD8520728BF30C148BF0B60704759
:100140001FB51FBD10B510BD00F0A6F81146FFF792
:10015000F7FF00F0CCF900F0C4F803B4FFF7F2FFAA
:1001600003BC00F099FB000009488047094800479C
:10017000FEE7FEE7FEE7FEE7FEE7FEE7FEE7FEE757
:10018000FEE7FEE704480549034A054B70470000B7
:1001900029070000CD000000900000109002001020
:1001A0009000001053EA020C00F069802DE9F04B3A
:1001B0004FF00006002B1FBFB3FA83F503FA05F4D6
:1001C00024FA05F65E4012BF1643B2FA82F502FA2F
:1001D00005F4C5F120051EBF22FA05FC44EA0C0413
:1001E000203556EA044C4FEA144418BF641C4FF003
:1001F00000084FF00009904271EB030C39D300293D
:1002000019BFB1FA81F701FA07F6B0FA80F700FAE0
:1002100007F6C7F120071EBF20FA07FC46EA0C06C6
:100220002037B6FBF4FCA7EB0507103F07F01F0BC8
:10023000CBF120060CFA0BFB2CFA06F644BFB346B2
:100240000026202FA4BF5E464FF0000B5BEA060C91
:1002500008BF4FF0010B19EB0B09ABFB027C48EB1D
:100260000608C01B06FB02CC0BFB03CC71EB0C0198
:10027000C1E70B46024641464846BDE8F08B13B540
:100280004FF000004FF00001AFF30080BDE81C40CC
:100290007047704770477047754600F029F8AE46C2
:1002A00005006946534620F00700854618B020B582
:1002B000FFF768FFBDE820404FF000064FF0000751
:1002C0004FF000084FF0000B21F00701AC46ACE8FE
:1002D000C009ACE8C009ACE8C009ACE8C0098D466B
:1002E00070470446AFF300802046FFF736FF00005A
:1002F000004870473000001070470000FFFFFFFF0C
:10030000002100E0491C8142FCD370474FF470008B
:100310009049C8634FF00070C8674000C86780000C
:100320008D490860704700B5FFF7F0FF8B48006803
:10033000884948634FF08060C8674010C867C000B4
:10034000874908604FF01900FFF7DAFF4FF080503F
:100350008049C1F89C0000BD00B58248007800F0DB
:10036000F0007E4908600846008800040860FFF736
:10037000DAFF7C48007800F00F00784908600846F2
:10038000008800050860FFF7CEFF4FF47A70FFF792
:10039000B7FF00BD00B5FFF7B9FF704800686D49B1
:1003A00048634FF0007088674000C86780006C4960
:1003B00008604FF01900FFF7A3FF4FF08050654928
:1003C000C1F89C0000BD00B56648007800F0F00060
:1003D000624908600846008800040860FFF7DAFFF9
:1003E0006048007800F00F005C490860084600880B
:1003F00000050860FFF7CEFF4FF47A70FFF780FF2B
:1004000000BD10B5044600230CE0E05C55490860CF
:10041000FFF7D9FF5B1C102B04D1C12051490860A4
:10042000FFF79AFFE05C0028EFD110BD0CB54EA09D
:10043000006801904DA0006800904D48C06820F40D
:100440007F404B49C8600846C06920F44020C8611D
:100450000846C06920F44010C8610846406A20F090
:10046000407048623B48006A40F4700039490862B5
:100470000846006E40F0007008660846006E40F0C6
:10048000806008663B48006840F08050C1F88000FA
:10049000FFF73CFF4FF44860FFF732FF00230AE00C
:1004A00001A8C05C2D490860FFF73DFF47F23050BE
:1004B000FFF726FF5B1C042BF2D39DF800002949AF
:1004C0000860FFF749FF47F23050FFF719FF01239B
:1004D0000AE01DF8030023490860FFF73DFF4FF4D1
:1004E0004870FFF70DFF5B1C042BF2D30CBD00F02E
:1004F0001BF900F045F8FFF799FF4FF44860FFF74C
:10050000FFFE812017490860FFF726FF4FF448706F
:10051000FFF7F6FE1848FFF774FFC1201149086085
:10052000FFF71AFF4FF44870FFF7EAFE1348FFF792
:1005300068FF41F28830FFF7E3FE00BFFEE700B539
:10054000012008490860FFF707FF42F21070FFF72B
:10055000D7FE00BD00C009209CC009200400001087
:1005600098C009200000001030303020280C068090
:1005700000C0024080C009200800001016000010D2
:100580002DE9F047B1480068C0F3016003287CD131
:10059000AF48006810F0030006D0012833D00228CD
:1005A0005FD003282ED100E000BFA8480068C0F348
:1005B000074000F101044FF00201A648D0F888007E
:1005C000C0F30E0000F10100A1FB0001A24B4FF0AF
:1005D000000CA0FB037901FB039100FB0C112246E8
:1005E00063463846FFF7DEFD05469C480068C0B20A
:1005F00000F1010422464FF000032846FFF7D2FD28
:10060000974908605DE091480068C0F3074000F139
:1006100001044FF002018F48D0F88800C0F30E00AB
:1006200000F10100A1FB00108E4A4FF0000CA1FB6D
:10063000027900FB029001FB0C012246634638461A
:10064000FFF7B0FD054685480068C0B200F101041F
:1006500022464FF000032846FFF7A4FD80490860BA
:100660002FE07A480068C0F3074000F101044FF022
:1006700002017848D0F88800C0F30E0000F10100B4
:10068000A1FB00124FF4004000E01BE04FF000031C
:10069000A1FB007902FB009001FB030122463846D2
:1006A000FFF780FD05466D480068C0B200F1010407
:1006B00022464FF000032846FFF774FD68490860A2
:1006C00000BF2FE06248006810F0030006D0012848
:1006D00010D0022819D0032823D100E000BF5F48C2
:1006E0000068C0B200F101005B49B1FBF0F05C4969
:1006F000086016E059480068C0B200F1010059498D
:10070000B1FBF0F0564908600BE054480068C0B2F5
:1007100000F101004FF40041B1FBF0F050490860D6
:1007200000BF00BFBDE8F08720204F49086049485E
:10073000D0F8A00110F0200F05D000BF4A48006893
:1007400010F0400FFAD00320444908604FF0000039
:100750004049C1F8A801454908604FF001003C49F3
:1007600008604348434908604FF0AA0042490860C6
:100770004FF0550008604FF00100404908604FF00D
:10078000AA003D4908604FF055003249C1F88C007D
:1007900000BF2E48006810F0806FFAD00320374960
:1007A00008604FF0AA002B49C1F88C004FF05500AB
:1007B0003149086000BF2548006800F04070B0F182
:1007C000407FF8D123202E4908604FF0AA0021492C
:1007D000C1F8AC004FF055002A4908604FF0010005
:1007E000294908604FF0AA00264908604FF05500DB
:1007F0001849C1F8AC0000BF2448006810F4806FAD
:10080000FAD00320204908604FF0AA001149C1F82E
:10081000AC004FF055001B49086000BF1B48006842
:1008200000F44070B0F5407FF8D1194819490860CC
:100830004FF000000749C1F8C8010846006820F4DD
:10084000704040F4804008607047000088C00F404E
:100850000CC10F4000C00F4000093D0004C10F4013
:100860002C000010001BB700A0C10F40ACC10F400E
:100870006300050084C00F408CC00F4080C00F4053
:10088000A4C00F40ACC00F40A0C00F40A8C00F4094
:10089000DE872804C4C00F4001491820ABBEFEE724
:1008A00026000200C4080000000000103000000014
:1008B00008010000F4080000300000106002000091
:1008C000240100000000000000000000414E4952D9
:1008D000554448000000000000004720530000007D
:1008E0000000000000000000000000000000000008
:0408F00000E1F50529
:04000005000000CD2A
:00000001FF
